{
  "_format": "hh-sol-artifact-1",
  "contractName": "PingMeNFT",
  "sourceName": "contracts/LINK.sol",
  "abi": [
    {
      "anonymous": false,
      "inputs": [
        {
          "indexed": true,
          "internalType": "address",
          "name": "owner",
          "type": "address"
        },
        {
          "indexed": true,
          "internalType": "address",
          "name": "approved",
          "type": "address"
        },
        {
          "indexed": true,
          "internalType": "uint256",
          "name": "tokenId",
          "type": "uint256"
        }
      ],
      "name": "Approval",
      "type": "event"
    },
    {
      "anonymous": false,
      "inputs": [
        {
          "indexed": true,
          "internalType": "address",
          "name": "owner",
          "type": "address"
        },
        {
          "indexed": true,
          "internalType": "address",
          "name": "operator",
          "type": "address"
        },
        {
          "indexed": false,
          "internalType": "bool",
          "name": "approved",
          "type": "bool"
        }
      ],
      "name": "ApprovalForAll",
      "type": "event"
    },
    {
      "anonymous": false,
      "inputs": [
        {
          "indexed": false,
          "internalType": "uint8",
          "name": "version",
          "type": "uint8"
        }
      ],
      "name": "Initialized",
      "type": "event"
    },
    {
      "anonymous": false,
      "inputs": [
        {
          "indexed": true,
          "internalType": "address",
          "name": "previousOwner",
          "type": "address"
        },
        {
          "indexed": true,
          "internalType": "address",
          "name": "newOwner",
          "type": "address"
        }
      ],
      "name": "OwnershipTransferred",
      "type": "event"
    },
    {
      "anonymous": false,
      "inputs": [
        {
          "indexed": true,
          "internalType": "address",
          "name": "token0",
          "type": "address"
        },
        {
          "indexed": true,
          "internalType": "address",
          "name": "token1",
          "type": "address"
        }
      ],
      "name": "PrivateRelationshipCancel",
      "type": "event"
    },
    {
      "anonymous": false,
      "inputs": [
        {
          "indexed": true,
          "internalType": "address",
          "name": "token0",
          "type": "address"
        },
        {
          "indexed": true,
          "internalType": "address",
          "name": "token1",
          "type": "address"
        },
        {
          "indexed": false,
          "internalType": "uint256",
          "name": "tokenID0",
          "type": "uint256"
        },
        {
          "indexed": false,
          "internalType": "uint256",
          "name": "tokenID1",
          "type": "uint256"
        }
      ],
      "name": "PrivateRelationshipCreated",
      "type": "event"
    },
    {
      "anonymous": false,
      "inputs": [
        {
          "indexed": true,
          "internalType": "address",
          "name": "token0",
          "type": "address"
        },
        {
          "indexed": true,
          "internalType": "address",
          "name": "token1",
          "type": "address"
        }
      ],
      "name": "PublicRelationshipCancel",
      "type": "event"
    },
    {
      "anonymous": false,
      "inputs": [
        {
          "indexed": true,
          "internalType": "address",
          "name": "token0",
          "type": "address"
        },
        {
          "indexed": true,
          "internalType": "address",
          "name": "token1",
          "type": "address"
        },
        {
          "indexed": false,
          "internalType": "uint256",
          "name": "tokenID0",
          "type": "uint256"
        },
        {
          "indexed": false,
          "internalType": "uint256",
          "name": "tokenID1",
          "type": "uint256"
        }
      ],
      "name": "PublicRelationshipCreated",
      "type": "event"
    },
    {
      "anonymous": false,
      "inputs": [
        {
          "indexed": true,
          "internalType": "address",
          "name": "from",
          "type": "address"
        },
        {
          "indexed": true,
          "internalType": "address",
          "name": "to",
          "type": "address"
        },
        {
          "indexed": true,
          "internalType": "uint256",
          "name": "tokenId",
          "type": "uint256"
        }
      ],
      "name": "Transfer",
      "type": "event"
    },
    {
      "inputs": [
        {
          "internalType": "address",
          "name": "to",
          "type": "address"
        },
        {
          "internalType": "uint256",
          "name": "tokenId",
          "type": "uint256"
        }
      ],
      "name": "approve",
      "outputs": [],
      "stateMutability": "nonpayable",
      "type": "function"
    },
    {
      "inputs": [
        {
          "internalType": "address",
          "name": "owner",
          "type": "address"
        }
      ],
      "name": "balanceOf",
      "outputs": [
        {
          "internalType": "uint256",
          "name": "",
          "type": "uint256"
        }
      ],
      "stateMutability": "view",
      "type": "function"
    },
    {
      "inputs": [
        {
          "internalType": "address",
          "name": "_account",
          "type": "address"
        }
      ],
      "name": "cancelPrivateRelationship",
      "outputs": [],
      "stateMutability": "nonpayable",
      "type": "function"
    },
    {
      "inputs": [
        {
          "internalType": "address",
          "name": "_account",
          "type": "address"
        }
      ],
      "name": "cancelPublicRelationship",
      "outputs": [],
      "stateMutability": "nonpayable",
      "type": "function"
    },
    {
      "inputs": [
        {
          "internalType": "address payable",
          "name": "_account",
          "type": "address"
        },
        {
          "internalType": "uint256",
          "name": "_tokenID",
          "type": "uint256"
        },
        {
          "internalType": "uint256",
          "name": "_relationshipType",
          "type": "uint256"
        },
        {
          "internalType": "bytes",
          "name": "_signature",
          "type": "bytes"
        }
      ],
      "name": "creatPrivateRelationship",
      "outputs": [],
      "stateMutability": "payable",
      "type": "function"
    },
    {
      "inputs": [
        {
          "internalType": "address payable",
          "name": "_account",
          "type": "address"
        },
        {
          "internalType": "uint256",
          "name": "_relationshipType",
          "type": "uint256"
        },
        {
          "internalType": "bytes",
          "name": "_signature",
          "type": "bytes"
        }
      ],
      "name": "creatPublicRelationship",
      "outputs": [],
      "stateMutability": "payable",
      "type": "function"
    },
    {
      "inputs": [],
      "name": "fee",
      "outputs": [
        {
          "internalType": "uint256",
          "name": "",
          "type": "uint256"
        }
      ],
      "stateMutability": "view",
      "type": "function"
    },
    {
      "inputs": [
        {
          "internalType": "uint256",
          "name": "tokenId",
          "type": "uint256"
        }
      ],
      "name": "getApproved",
      "outputs": [
        {
          "internalType": "address",
          "name": "",
          "type": "address"
        }
      ],
      "stateMutability": "view",
      "type": "function"
    },
    {
      "inputs": [
        {
          "internalType": "address",
          "name": "_account",
          "type": "address"
        },
        {
          "internalType": "uint256",
          "name": "_tokenID",
          "type": "uint256"
        },
        {
          "internalType": "uint256",
          "name": "_relationshipType",
          "type": "uint256"
        }
      ],
      "name": "getPrivateMessageHash",
      "outputs": [
        {
          "internalType": "bytes32",
          "name": "",
          "type": "bytes32"
        }
      ],
      "stateMutability": "pure",
      "type": "function"
    },
    {
      "inputs": [
        {
          "internalType": "address",
          "name": "_userA",
          "type": "address"
        },
        {
          "internalType": "address",
          "name": "_userB",
          "type": "address"
        }
      ],
      "name": "getPrivateRelationshipTokenIDs",
      "outputs": [
        {
          "internalType": "uint256[]",
          "name": "",
          "type": "uint256[]"
        }
      ],
      "stateMutability": "view",
      "type": "function"
    },
    {
      "inputs": [
        {
          "internalType": "address",
          "name": "_userA",
          "type": "address"
        },
        {
          "internalType": "address",
          "name": "_userB",
          "type": "address"
        }
      ],
      "name": "getPublicRelationshipTokenIDs",
      "outputs": [
        {
          "internalType": "uint256[]",
          "name": "",
          "type": "uint256[]"
        }
      ],
      "stateMutability": "view",
      "type": "function"
    },
    {
      "inputs": [
        {
          "internalType": "address",
          "name": "_account",
          "type": "address"
        },
        {
          "internalType": "uint256",
          "name": "_relationshipType",
          "type": "uint256"
        }
      ],
      "name": "getPulickeHash",
      "outputs": [
        {
          "internalType": "bytes32",
          "name": "",
          "type": "bytes32"
        }
      ],
      "stateMutability": "pure",
      "type": "function"
    },
    {
      "inputs": [
        {
          "internalType": "uint256",
          "name": "_tokenID",
          "type": "uint256"
        }
      ],
      "name": "getRelationshipType",
      "outputs": [
        {
          "internalType": "uint256",
          "name": "",
          "type": "uint256"
        }
      ],
      "stateMutability": "view",
      "type": "function"
    },
    {
      "inputs": [
        {
          "internalType": "string",
          "name": "_name",
          "type": "string"
        },
        {
          "internalType": "string",
          "name": "_symbol",
          "type": "string"
        }
      ],
      "name": "initialize",
      "outputs": [],
      "stateMutability": "nonpayable",
      "type": "function"
    },
    {
      "inputs": [
        {
          "internalType": "address",
          "name": "owner",
          "type": "address"
        },
        {
          "internalType": "address",
          "name": "operator",
          "type": "address"
        }
      ],
      "name": "isApprovedForAll",
      "outputs": [
        {
          "internalType": "bool",
          "name": "",
          "type": "bool"
        }
      ],
      "stateMutability": "view",
      "type": "function"
    },
    {
      "inputs": [],
      "name": "name",
      "outputs": [
        {
          "internalType": "string",
          "name": "",
          "type": "string"
        }
      ],
      "stateMutability": "view",
      "type": "function"
    },
    {
      "inputs": [],
      "name": "owner",
      "outputs": [
        {
          "internalType": "address",
          "name": "",
          "type": "address"
        }
      ],
      "stateMutability": "view",
      "type": "function"
    },
    {
      "inputs": [
        {
          "internalType": "uint256",
          "name": "tokenId",
          "type": "uint256"
        }
      ],
      "name": "ownerOf",
      "outputs": [
        {
          "internalType": "address",
          "name": "",
          "type": "address"
        }
      ],
      "stateMutability": "view",
      "type": "function"
    },
    {
      "inputs": [
        {
          "internalType": "address",
          "name": "",
          "type": "address"
        },
        {
          "internalType": "address",
          "name": "",
          "type": "address"
        },
        {
          "internalType": "uint256",
          "name": "",
          "type": "uint256"
        }
      ],
      "name": "privateRelationships",
      "outputs": [
        {
          "internalType": "uint256",
          "name": "",
          "type": "uint256"
        }
      ],
      "stateMutability": "view",
      "type": "function"
    },
    {
      "inputs": [
        {
          "internalType": "address",
          "name": "",
          "type": "address"
        },
        {
          "internalType": "address",
          "name": "",
          "type": "address"
        },
        {
          "internalType": "uint256",
          "name": "",
          "type": "uint256"
        }
      ],
      "name": "publicRelationships",
      "outputs": [
        {
          "internalType": "uint256",
          "name": "",
          "type": "uint256"
        }
      ],
      "stateMutability": "view",
      "type": "function"
    },
    {
      "inputs": [
        {
          "internalType": "uint256",
          "name": "",
          "type": "uint256"
        }
      ],
      "name": "relationshipTypes",
      "outputs": [
        {
          "internalType": "uint256",
          "name": "",
          "type": "uint256"
        }
      ],
      "stateMutability": "view",
      "type": "function"
    },
    {
      "inputs": [],
      "name": "renounceOwnership",
      "outputs": [],
      "stateMutability": "nonpayable",
      "type": "function"
    },
    {
      "inputs": [
        {
          "internalType": "address",
          "name": "from",
          "type": "address"
        },
        {
          "internalType": "address",
          "name": "to",
          "type": "address"
        },
        {
          "internalType": "uint256",
          "name": "tokenId",
          "type": "uint256"
        }
      ],
      "name": "safeTransferFrom",
      "outputs": [],
      "stateMutability": "nonpayable",
      "type": "function"
    },
    {
      "inputs": [
        {
          "internalType": "address",
          "name": "from",
          "type": "address"
        },
        {
          "internalType": "address",
          "name": "to",
          "type": "address"
        },
        {
          "internalType": "uint256",
          "name": "tokenId",
          "type": "uint256"
        },
        {
          "internalType": "bytes",
          "name": "data",
          "type": "bytes"
        }
      ],
      "name": "safeTransferFrom",
      "outputs": [],
      "stateMutability": "nonpayable",
      "type": "function"
    },
    {
      "inputs": [
        {
          "internalType": "address",
          "name": "operator",
          "type": "address"
        },
        {
          "internalType": "bool",
          "name": "approved",
          "type": "bool"
        }
      ],
      "name": "setApprovalForAll",
      "outputs": [],
      "stateMutability": "nonpayable",
      "type": "function"
    },
    {
      "inputs": [
        {
          "internalType": "bytes4",
          "name": "interfaceId",
          "type": "bytes4"
        }
      ],
      "name": "supportsInterface",
      "outputs": [
        {
          "internalType": "bool",
          "name": "",
          "type": "bool"
        }
      ],
      "stateMutability": "view",
      "type": "function"
    },
    {
      "inputs": [],
      "name": "symbol",
      "outputs": [
        {
          "internalType": "string",
          "name": "",
          "type": "string"
        }
      ],
      "stateMutability": "view",
      "type": "function"
    },
    {
      "inputs": [
        {
          "internalType": "uint256",
          "name": "tokenId",
          "type": "uint256"
        }
      ],
      "name": "tokenURI",
      "outputs": [
        {
          "internalType": "string",
          "name": "",
          "type": "string"
        }
      ],
      "stateMutability": "view",
      "type": "function"
    },
    {
      "inputs": [
        {
          "internalType": "address",
          "name": "from",
          "type": "address"
        },
        {
          "internalType": "address",
          "name": "to",
          "type": "address"
        },
        {
          "internalType": "uint256",
          "name": "tokenId",
          "type": "uint256"
        }
      ],
      "name": "transferFrom",
      "outputs": [],
      "stateMutability": "nonpayable",
      "type": "function"
    },
    {
      "inputs": [
        {
          "internalType": "address",
          "name": "newOwner",
          "type": "address"
        }
      ],
      "name": "transferOwnership",
      "outputs": [],
      "stateMutability": "nonpayable",
      "type": "function"
    },
    {
      "inputs": [
        {
          "internalType": "bytes32",
          "name": "_msgHash",
          "type": "bytes32"
        },
        {
          "internalType": "bytes",
          "name": "_signature",
          "type": "bytes"
        },
        {
          "internalType": "address",
          "name": "_account",
          "type": "address"
        }
      ],
      "name": "verify",
      "outputs": [
        {
          "internalType": "bool",
          "name": "",
          "type": "bool"
        }
      ],
      "stateMutability": "pure",
      "type": "function"
    },
    {
      "inputs": [],
      "name": "withdrawMoney",
      "outputs": [],
      "stateMutability": "nonpayable",
      "type": "function"
    }
  ],
  "bytecode": "0x608060405234801561001057600080fd5b50613175806100206000396000f3fe6080604052600436106101e35760003560e01c8063823ac37311610102578063baed43d311610095578063ddca3f4311610064578063ddca3f4314610584578063e985e9c51461059a578063f2fde38b146105e3578063f71cf5801461060357600080fd5b8063baed43d314610511578063c42bf8c714610531578063c87b56dd14610544578063dcaec2581461056457600080fd5b8063a22cb465116100d1578063a22cb4651461049c578063ab9e9dd6146104bc578063ac446002146104dc578063b88d4fde146104f157600080fd5b8063823ac37314610429578063878b5f91146104495780638da5cb5b1461046957806395d89b411461048757600080fd5b80633896e0891161017a5780636352211e116101495780636352211e146103b457806370a08231146103d4578063715018a6146103f45780637d0353cf1461040957600080fd5b80633896e0891461033457806342842e0e1461036157806348e86eac146103815780634cd88b761461039457600080fd5b8063095ea7b3116101b6578063095ea7b3146102a457806323b872dd146102c657806325fa5adc146102e65780632f0bc8231461031457600080fd5b806301ffc9a7146101e8578063061393a61461021d57806306fdde031461024a578063081812fc1461026c575b600080fd5b3480156101f457600080fd5b50610208610203366004612927565b610630565b60405190151581526020015b60405180910390f35b34801561022957600080fd5b5061023d610238366004612959565b610682565b6040516102149190612992565b34801561025657600080fd5b5061025f61072a565b6040516102149190612a2e565b34801561027857600080fd5b5061028c610287366004612a41565b6107bc565b6040516001600160a01b039091168152602001610214565b3480156102b057600080fd5b506102c46102bf366004612a5a565b6107e3565b005b3480156102d257600080fd5b506102c46102e1366004612a86565b6108fe565b3480156102f257600080fd5b50610306610301366004612ac7565b61092f565b604051908152602001610214565b34801561032057600080fd5b5061030661032f366004612a86565b61097e565b34801561034057600080fd5b5061030661034f366004612a41565b60cb6020526000908152604090205481565b34801561036d57600080fd5b506102c461037c366004612a86565b6109bc565b6102c461038f366004612b9f565b6109d7565b3480156103a057600080fd5b506102c46103af366004612bf8565b610d9b565b3480156103c057600080fd5b5061028c6103cf366004612a41565b610eba565b3480156103e057600080fd5b506103066103ef366004612c5c565b610f1a565b34801561040057600080fd5b506102c4610fa0565b34801561041557600080fd5b5061023d610424366004612959565b610fb4565b34801561043557600080fd5b50610208610444366004612c79565b61105a565b34801561045557600080fd5b506102c4610464366004612c5c565b6110b4565b34801561047557600080fd5b506097546001600160a01b031661028c565b34801561049357600080fd5b5061025f6112dc565b3480156104a857600080fd5b506102c46104b7366004612cd4565b6112eb565b3480156104c857600080fd5b506103066104d7366004612a5a565b6112fa565b3480156104e857600080fd5b506102c4611341565b3480156104fd57600080fd5b506102c461050c366004612d07565b6113d7565b34801561051d57600080fd5b5061030661052c366004612a86565b61140f565b6102c461053f366004612d73565b611437565b34801561055057600080fd5b5061025f61055f366004612a41565b6117bf565b34801561057057600080fd5b506102c461057f366004612c5c565b611833565b34801561059057600080fd5b5061030660ca5481565b3480156105a657600080fd5b506102086105b5366004612959565b6001600160a01b039182166000908152606a6020908152604080832093909416825291909152205460ff1690565b3480156105ef57600080fd5b506102c46105fe366004612c5c565b611a3b565b34801561060f57600080fd5b5061030661061e366004612a41565b600090815260cb602052604090205490565b60006001600160e01b031982166380ac58cd60e01b148061066157506001600160e01b03198216635b5e139f60e01b145b8061067c57506301ffc9a760e01b6001600160e01b03198316145b92915050565b6060600080836001600160a01b0316856001600160a01b0316106106a75783856106aa565b84845b6001600160a01b03808216600090815260cc60209081526040808320938616835292815290829020805483518184028101840190945280845294965092945090929083018282801561071b57602002820191906000526020600020905b815481526020019060010190808311610707575b50505050509250505092915050565b60606065805461073990612dbe565b80601f016020809104026020016040519081016040528092919081815260200182805461076590612dbe565b80156107b25780601f10610787576101008083540402835291602001916107b2565b820191906000526020600020905b81548152906001019060200180831161079557829003601f168201915b5050505050905090565b60006107c782611ab1565b506000908152606960205260409020546001600160a01b031690565b60006107ee82610eba565b9050806001600160a01b0316836001600160a01b031614156108615760405162461bcd60e51b815260206004820152602160248201527f4552433732313a20617070726f76616c20746f2063757272656e74206f776e656044820152603960f91b60648201526084015b60405180910390fd5b336001600160a01b038216148061087d575061087d81336105b5565b6108ef5760405162461bcd60e51b815260206004820152603d60248201527f4552433732313a20617070726f76652063616c6c6572206973206e6f7420746f60448201527f6b656e206f776e6572206f7220617070726f76656420666f7220616c6c0000006064820152608401610858565b6108f98383611b10565b505050565b6109083382611b7e565b6109245760405162461bcd60e51b815260040161085890612df9565b6108f9838383611bf2565b6040516bffffffffffffffffffffffff19606085901b16602082015260348101839052605481018290526000906074016040516020818303038152906040528051906020012090509392505050565b60cc60205282600052604060002060205281600052604060002081815481106109a657600080fd5b9060005260206000200160009250925050505481565b6108f9838383604051806020016040528060008152506113d7565b336001600160a01b0384161415610a245760405162461bcd60e51b815260206004820152601160248201527012511153951250d05317d050d0d3d55395607a1b6044820152606401610858565b6001600160a01b038316610a4a5760405162461bcd60e51b815260040161085890612e46565b6000806001600160a01b0385163310610a64578433610a67565b33855b91509150610a976040518060400160405280600981526020016830b2323932b9b9a0a160b91b8152508383611d63565b6001600160a01b03808216600090815260cc602090815260408083209386168352929052205415610afc5760405162461bcd60e51b815260206004820152600f60248201526e52454c4154494f4e5f45584953545360881b6044820152606401610858565b6000610b0886866112fa565b7f19457468657265756d205369676e6564204d6573736167653a0a3332000000006000908152601c829052603c9020909150610b4581868961105a565b610b855760405162461bcd60e51b8152602060048201526011602482015270496e76616c6964207369676e617475726560781b6044820152606401610858565b60c98054600090815260cb602081815260408084208b90556001600160a01b03808916855260cc8352818520908a16855282528320845481546001810183559185529184200155915488929190610bdd906002612e82565b815260208082019290925260409081016000908120939093556001600160a01b03808716845260cc83528184209088168452909152902060c954610c22906002612e82565b815460018101835560009283526020808420909101919091556001600160a01b03808616835260cc8252604080842091881684529152902054610c6490611daa565b610c708460c954611def565b610c888360c9546002610c839190612e82565b611def565b3415610d1f576000876001600160a01b0316610cbb6103e8610cb560ca5434611f8890919063ffffffff16565b90611f94565b604051600081818185875af1925050503d8060008114610cf7576040519150601f19603f3d011682016040523d82523d6000602084013e610cfc565b606091505b5050905080610d1d5760405162461bcd60e51b815260040161085890612e9a565b505b60c954610d2d906004612e82565b60c981905550836001600160a01b0316836001600160a01b03167f8b70c0ec7da4c9daf39bcfc00a43c0c5f1181c94c62aa762c800582dbd30d4f960c9546002610d779190612e82565b60c9546040805192835260208301919091520160405180910390a350505050505050565b600054610100900460ff1615808015610dbb5750600054600160ff909116105b80610dd55750303b158015610dd5575060005460ff166001145b610e385760405162461bcd60e51b815260206004820152602e60248201527f496e697469616c697a61626c653a20636f6e747261637420697320616c72656160448201526d191e481a5b9a5d1a585b1a5e995960921b6064820152608401610858565b6000805460ff191660011790558015610e5b576000805461ff0019166101001790555b610e658383611fa0565b600060c9556103b660ca5580156108f9576000805461ff0019169055604051600181527f7f26b83ff96e1f2b6a682f133852f6798a09c465da95921460cefb38474024989060200160405180910390a1505050565b6000818152606760205260408120546001600160a01b03168061067c5760405162461bcd60e51b8152602060048201526018602482015277115490cdcc8c4e881a5b9d985b1a59081d1bdad95b88125160421b6044820152606401610858565b60006001600160a01b038216610f845760405162461bcd60e51b815260206004820152602960248201527f4552433732313a2061646472657373207a65726f206973206e6f7420612076616044820152683634b21037bbb732b960b91b6064820152608401610858565b506001600160a01b031660009081526068602052604090205490565b610fa8611fd1565b610fb2600061202b565b565b6060600080836001600160a01b0316856001600160a01b031610610fd9578385610fdc565b84845b6001600160a01b03808216600090815260cd60209081526040808320938616835292815290829020805483518184028101840190945280845294965092945090929083018282801561071b57602002820191906000526020600020908154815260200190600101908083116107075750505050509250505092915050565b600061108e6040518060400160405280600681526020016576657269667960d01b815250611088868661207d565b84611d63565b816001600160a01b03166110a2858561207d565b6001600160a01b031614949350505050565b6001600160a01b0381166110da5760405162461bcd60e51b815260040161085890612e46565b6000806001600160a01b03831633106110f45782336110f7565b33835b6001600160a01b03808216600090815260cc602090815260408083209386168352929052205491935091506111645760405162461bcd60e51b815260206004820152601360248201527252454c4154494f4e5f4e4f545f45584953545360681b6044820152606401610858565b60005b60028110156112375760408051808201825260058152642fb13ab93760d91b6020808301919091526001600160a01b03808616600090815260cc8352848120918816815291529190912080546111d9929190849081106111c9576111c9612ef7565b90600052602060002001546120a1565b6001600160a01b03808316600090815260cc60209081526040808320938716835292905220805461122591908390811061121557611215612ef7565b90600052602060002001546120e6565b8061122f81612f0d565b915050611167565b506001600160a01b03808216600090815260cc6020908152604080832093861683529290529081206112689161285a565b6001600160a01b03808216600090815260cc602090815260408083209386168352929052205461129790611daa565b816001600160a01b0316816001600160a01b03167ffc31f5413d866683b18f7bb3576af2ad3a32102b6340352a91e907092e18eb6d60405160405180910390a3505050565b60606066805461073990612dbe565b6112f6338383612189565b5050565b6040516bffffffffffffffffffffffff19606084901b1660208201526034810182905260009060540160405160208183030381529060405280519060200120905092915050565b611349611fd1565b604051600090339047908381818185875af1925050503d806000811461138b576040519150601f19603f3d011682016040523d82523d6000602084013e611390565b606091505b50509050806113d45760405162461bcd60e51b815260206004820152601060248201526f2a3930b739b332b9103330b4b632b21760811b6044820152606401610858565b50565b6113e13383611b7e565b6113fd5760405162461bcd60e51b815260040161085890612df9565b61140984848484612258565b50505050565b60cd60205282600052604060002060205281600052604060002081815481106109a657600080fd5b336001600160a01b03851614156114845760405162461bcd60e51b815260206004820152601160248201527012511153951250d05317d050d0d3d55395607a1b6044820152606401610858565b6001600160a01b0384166114aa5760405162461bcd60e51b815260040161085890612e46565b6000806001600160a01b03861633106114c45785336114c7565b33865b915091506114f76040518060400160405280600981526020016830b2323932b9b9a0a160b91b8152508383611d63565b6001600160a01b03808216600090815260cd60209081526040808320938616835292905220541561155c5760405162461bcd60e51b815260206004820152600f60248201526e52454c4154494f4e5f45584953545360881b6044820152606401610858565b600061156987878761092f565b7f19457468657265756d205369676e6564204d6573736167653a0a3332000000006000908152601c829052603c90209091506115a681868a61105a565b6115e65760405162461bcd60e51b8152602060048201526011602482015270496e76616c6964207369676e617475726560781b6044820152606401610858565b600087815260cb602081815260408084208a90556001600160a01b03808816855260cd835281852090891685528252832080546001810182559084529083200189905587916116368a6002612e82565b815260208082019290925260409081016000908120939093556001600160a01b03808716845260cd835281842090881684529091529020611678886002612e82565b815460018101835560009283526020808420909101919091556001600160a01b03808616835260cd82526040808420918816845291529020546116ba90611daa565b6116c48488611def565b6116d383610c83896002612e82565b3415611764576000886001600160a01b03166117006103e8610cb560ca5434611f8890919063ffffffff16565b604051600081818185875af1925050503d806000811461173c576040519150601f19603f3d011682016040523d82523d6000602084013e611741565b606091505b50509050806117625760405162461bcd60e51b815260040161085890612e9a565b505b6001600160a01b038085169084167fa4d06c6dbbd5ff229b882bd289ac63b05be9ea931dfca85ff3eaf7255e403a0361179e8a6002612e82565b60408051918252602082018c90520160405180910390a35050505050505050565b60606117ca82611ab1565b60006117e160408051602081019091526000815290565b90506000815111611801576040518060200160405280600081525061182c565b8061180b8461228b565b60405160200161181c929190612f28565b6040516020818303038152906040525b9392505050565b6001600160a01b0381166118595760405162461bcd60e51b815260040161085890612e46565b6000806001600160a01b0383163310611873578233611876565b33835b6001600160a01b03808216600090815260cd602090815260408083209386168352929052205491935091506118e35760405162461bcd60e51b815260206004820152601360248201527252454c4154494f4e5f4e4f545f45584953545360681b6044820152606401610858565b60005b60028110156119965760408051808201825260058152642fb13ab93760d91b6020808301919091526001600160a01b03808616600090815260cd835284812091881681529152919091208054611948929190849081106111c9576111c9612ef7565b6001600160a01b03808316600090815260cd60209081526040808320938716835292905220805461198491908390811061121557611215612ef7565b8061198e81612f0d565b9150506118e6565b506001600160a01b03808216600090815260cd6020908152604080832093861683529290529081206119c79161285a565b6001600160a01b03808216600090815260cd60209081526040808320938616835292905220546119f690611daa565b816001600160a01b0316816001600160a01b03167f43a931ab3d45f3c196645b40aa4a609fbe2a8e1e83789689e686bdfbe78a7db460405160405180910390a3505050565b611a43611fd1565b6001600160a01b038116611aa85760405162461bcd60e51b815260206004820152602660248201527f4f776e61626c653a206e6577206f776e657220697320746865207a65726f206160448201526564647265737360d01b6064820152608401610858565b6113d48161202b565b6000818152606760205260409020546001600160a01b03166113d45760405162461bcd60e51b8152602060048201526018602482015277115490cdcc8c4e881a5b9d985b1a59081d1bdad95b88125160421b6044820152606401610858565b600081815260696020526040902080546001600160a01b0319166001600160a01b0384169081179091558190611b4582610eba565b6001600160a01b03167f8c5be1e5ebec7d5bd14f71427d1e84f3dd0314c0f7b2291e5b200ac8c7c3b92560405160405180910390a45050565b600080611b8a83610eba565b9050806001600160a01b0316846001600160a01b03161480611bd157506001600160a01b038082166000908152606a602090815260408083209388168352929052205460ff165b80611bea5750836001600160a01b03166110a2846107bc565b949350505050565b826001600160a01b0316611c0582610eba565b6001600160a01b031614611c2b5760405162461bcd60e51b815260040161085890612f57565b6001600160a01b038216611c8d5760405162461bcd60e51b8152602060048201526024808201527f4552433732313a207472616e7366657220746f20746865207a65726f206164646044820152637265737360e01b6064820152608401610858565b611c9a8383836001612320565b826001600160a01b0316611cad82610eba565b6001600160a01b031614611cd35760405162461bcd60e51b815260040161085890612f57565b600081815260696020908152604080832080546001600160a01b03199081169091556001600160a01b0387811680865260688552838620805460001901905590871680865283862080546001019055868652606790945282852080549092168417909155905184937fddf252ad1be2c89b69c2b068fc378daa952ba7f163c4a11628f55a4df523b3ef91a4505050565b6108f9838383604051602401611d7b93929190612f9c565b60408051601f198184030181529190526020810180516001600160e01b03166307e763af60e51b1790526123b4565b6113d481604051602401611dc091815260200190565b60408051601f198184030181529190526020810180516001600160e01b031663f82c50f160e01b1790526123b4565b6001600160a01b038216611e455760405162461bcd60e51b815260206004820181905260248201527f4552433732313a206d696e7420746f20746865207a65726f20616464726573736044820152606401610858565b6000818152606760205260409020546001600160a01b031615611eaa5760405162461bcd60e51b815260206004820152601c60248201527f4552433732313a20746f6b656e20616c7265616479206d696e746564000000006044820152606401610858565b611eb8600083836001612320565b6000818152606760205260409020546001600160a01b031615611f1d5760405162461bcd60e51b815260206004820152601c60248201527f4552433732313a20746f6b656e20616c7265616479206d696e746564000000006044820152606401610858565b6001600160a01b038216600081815260686020908152604080832080546001019055848352606790915280822080546001600160a01b0319168417905551839291907fddf252ad1be2c89b69c2b068fc378daa952ba7f163c4a11628f55a4df523b3ef908290a45050565b600061182c8284612fcf565b600061182c8284612fee565b600054610100900460ff16611fc75760405162461bcd60e51b815260040161085890613010565b6112f682826123bd565b6097546001600160a01b03163314610fb25760405162461bcd60e51b815260206004820181905260248201527f4f776e61626c653a2063616c6c6572206973206e6f7420746865206f776e65726044820152606401610858565b609780546001600160a01b038381166001600160a01b0319831681179093556040519116919082907f8be0079c531659141344cd1fd0a4f28419497f9722a3daafe3b4186f6b6457e090600090a35050565b600080600061208c858561240b565b9150915061209981612451565b509392505050565b6112f682826040516024016120b792919061305b565b60408051601f198184030181529190526020810180516001600160e01b0316632d839cb360e21b1790526123b4565b60006120f182610eba565b9050612101816000846001612320565b61210a82610eba565b600083815260696020908152604080832080546001600160a01b03199081169091556001600160a01b0385168085526068845282852080546000190190558785526067909352818420805490911690555192935084927fddf252ad1be2c89b69c2b068fc378daa952ba7f163c4a11628f55a4df523b3ef908390a45050565b816001600160a01b0316836001600160a01b031614156121eb5760405162461bcd60e51b815260206004820152601960248201527f4552433732313a20617070726f766520746f2063616c6c6572000000000000006044820152606401610858565b6001600160a01b038381166000818152606a6020908152604080832094871680845294825291829020805460ff191686151590811790915591519182527f17307eab39ab6107e8899845ad3d59bd9653f200f220920489ca2b5937696c31910160405180910390a3505050565b612263848484611bf2565b61226f8484848461259f565b6114095760405162461bcd60e51b81526004016108589061307d565b606060006122988361269d565b600101905060008167ffffffffffffffff8111156122b8576122b8612afc565b6040519080825280601f01601f1916602001820160405280156122e2576020820181803683370190505b5090508181016020015b600019016f181899199a1a9b1b9c1cb0b131b232b360811b600a86061a8153600a850494508461231b57612099565b6122ec565b612357604051806040016040528060148152602001732fb132b337b932aa37b5b2b72a3930b739b332b960611b8152508585611d63565b6001600160a01b038316158061237457506001600160a01b038416155b6123af5760405162461bcd60e51b815260206004820152600c60248201526b2727aa2faa2920a729a322a960a11b6044820152606401610858565b611409565b6113d481612775565b600054610100900460ff166123e45760405162461bcd60e51b815260040161085890613010565b81516123f7906065906020850190612878565b5080516108f9906066906020840190612878565b6000808251604114156124425760208301516040840151606085015160001a61243687828585612796565b9450945050505061244a565b506000905060025b9250929050565b6000816004811115612465576124656130cf565b141561246e5750565b6001816004811115612482576124826130cf565b14156124d05760405162461bcd60e51b815260206004820152601860248201527f45434453413a20696e76616c6964207369676e617475726500000000000000006044820152606401610858565b60028160048111156124e4576124e46130cf565b14156125325760405162461bcd60e51b815260206004820152601f60248201527f45434453413a20696e76616c6964207369676e6174757265206c656e677468006044820152606401610858565b6003816004811115612546576125466130cf565b14156113d45760405162461bcd60e51b815260206004820152602260248201527f45434453413a20696e76616c6964207369676e6174757265202773272076616c604482015261756560f01b6064820152608401610858565b60006001600160a01b0384163b1561269257604051630a85bd0160e11b81526001600160a01b0385169063150b7a02906125e39033908990889088906004016130e5565b6020604051808303816000875af192505050801561261e575060408051601f3d908101601f1916820190925261261b91810190613122565b60015b612678573d80801561264c576040519150601f19603f3d011682016040523d82523d6000602084013e612651565b606091505b5080516126705760405162461bcd60e51b81526004016108589061307d565b805181602001fd5b6001600160e01b031916630a85bd0160e11b149050611bea565b506001949350505050565b60008072184f03e93ff9f4daa797ed6e38ed64bf6a1f0160401b83106126dc5772184f03e93ff9f4daa797ed6e38ed64bf6a1f0160401b830492506040015b6d04ee2d6d415b85acef81000000008310612708576d04ee2d6d415b85acef8100000000830492506020015b662386f26fc10000831061272657662386f26fc10000830492506010015b6305f5e100831061273e576305f5e100830492506008015b612710831061275257612710830492506004015b60648310612764576064830492506002015b600a831061067c5760010192915050565b60006a636f6e736f6c652e6c6f679050600080835160208501845afa505050565b6000807f7fffffffffffffffffffffffffffffff5d576e7357a4501ddfe92f46681b20a08311156127cd5750600090506003612851565b6040805160008082526020820180845289905260ff881692820192909252606081018690526080810185905260019060a0016020604051602081039080840390855afa158015612821573d6000803e3d6000fd5b5050604051601f1901519150506001600160a01b03811661284a57600060019250925050612851565b9150600090505b94509492505050565b50805460008255906000526020600020908101906113d491906128fc565b82805461288490612dbe565b90600052602060002090601f0160209004810192826128a657600085556128ec565b82601f106128bf57805160ff19168380011785556128ec565b828001600101855582156128ec579182015b828111156128ec5782518255916020019190600101906128d1565b506128f89291506128fc565b5090565b5b808211156128f857600081556001016128fd565b6001600160e01b0319811681146113d457600080fd5b60006020828403121561293957600080fd5b813561182c81612911565b6001600160a01b03811681146113d457600080fd5b6000806040838503121561296c57600080fd5b823561297781612944565b9150602083013561298781612944565b809150509250929050565b6020808252825182820181905260009190848201906040850190845b818110156129ca578351835292840192918401916001016129ae565b50909695505050505050565b60005b838110156129f15781810151838201526020016129d9565b838111156114095750506000910152565b60008151808452612a1a8160208601602086016129d6565b601f01601f19169290920160200192915050565b60208152600061182c6020830184612a02565b600060208284031215612a5357600080fd5b5035919050565b60008060408385031215612a6d57600080fd5b8235612a7881612944565b946020939093013593505050565b600080600060608486031215612a9b57600080fd5b8335612aa681612944565b92506020840135612ab681612944565b929592945050506040919091013590565b600080600060608486031215612adc57600080fd5b8335612ae781612944565b95602085013595506040909401359392505050565b634e487b7160e01b600052604160045260246000fd5b600082601f830112612b2357600080fd5b813567ffffffffffffffff80821115612b3e57612b3e612afc565b604051601f8301601f19908116603f01168101908282118183101715612b6657612b66612afc565b81604052838152866020858801011115612b7f57600080fd5b836020870160208301376000602085830101528094505050505092915050565b600080600060608486031215612bb457600080fd5b8335612bbf81612944565b925060208401359150604084013567ffffffffffffffff811115612be257600080fd5b612bee86828701612b12565b9150509250925092565b60008060408385031215612c0b57600080fd5b823567ffffffffffffffff80821115612c2357600080fd5b612c2f86838701612b12565b93506020850135915080821115612c4557600080fd5b50612c5285828601612b12565b9150509250929050565b600060208284031215612c6e57600080fd5b813561182c81612944565b600080600060608486031215612c8e57600080fd5b83359250602084013567ffffffffffffffff811115612cac57600080fd5b612cb886828701612b12565b9250506040840135612cc981612944565b809150509250925092565b60008060408385031215612ce757600080fd5b8235612cf281612944565b91506020830135801515811461298757600080fd5b60008060008060808587031215612d1d57600080fd5b8435612d2881612944565b93506020850135612d3881612944565b925060408501359150606085013567ffffffffffffffff811115612d5b57600080fd5b612d6787828801612b12565b91505092959194509250565b60008060008060808587031215612d8957600080fd5b8435612d9481612944565b93506020850135925060408501359150606085013567ffffffffffffffff811115612d5b57600080fd5b600181811c90821680612dd257607f821691505b60208210811415612df357634e487b7160e01b600052602260045260246000fd5b50919050565b6020808252602d908201527f4552433732313a2063616c6c6572206973206e6f7420746f6b656e206f776e6560408201526c1c881bdc88185c1c1c9bdd9959609a1b606082015260800190565b6020808252600c908201526b5a45524f5f4144445245535360a01b604082015260600190565b634e487b7160e01b600052601160045260246000fd5b60008219821115612e9557612e95612e6c565b500190565b6020808252603a908201527f416464726573733a20756e61626c6520746f2073656e642076616c75652c207260408201527f6563697069656e74206d61792068617665207265766572746564000000000000606082015260800190565b634e487b7160e01b600052603260045260246000fd5b6000600019821415612f2157612f21612e6c565b5060010190565b60008351612f3a8184602088016129d6565b835190830190612f4e8183602088016129d6565b01949350505050565b60208082526025908201527f4552433732313a207472616e736665722066726f6d20696e636f72726563742060408201526437bbb732b960d91b606082015260800190565b606081526000612faf6060830186612a02565b6001600160a01b0394851660208401529290931660409091015292915050565b6000816000190483118215151615612fe957612fe9612e6c565b500290565b60008261300b57634e487b7160e01b600052601260045260246000fd5b500490565b6020808252602b908201527f496e697469616c697a61626c653a20636f6e7472616374206973206e6f74206960408201526a6e697469616c697a696e6760a81b606082015260800190565b60408152600061306e6040830185612a02565b90508260208301529392505050565b60208082526032908201527f4552433732313a207472616e7366657220746f206e6f6e20455243373231526560408201527131b2b4bb32b91034b6b83632b6b2b73a32b960711b606082015260800190565b634e487b7160e01b600052602160045260246000fd5b6001600160a01b038581168252841660208201526040810183905260806060820181905260009061311890830184612a02565b9695505050505050565b60006020828403121561313457600080fd5b815161182c8161291156fea26469706673582212202daa24ff264a5b9c6efe1353fce8e3eeec80df920bddb40086ee5828e185beb664736f6c634300080b0033",
  "linkReferences": {},
  "deployedLinkReferences": {}
}