{
  "_format": "hh-sol-artifact-1",
  "contractName": "PingMeNFT",
  "sourceName": "contracts/LINK.sol",
  "abi": [
    {
      "anonymous": false,
      "inputs": [
        {
          "indexed": true,
          "internalType": "address",
          "name": "owner",
          "type": "address"
        },
        {
          "indexed": true,
          "internalType": "address",
          "name": "approved",
          "type": "address"
        },
        {
          "indexed": true,
          "internalType": "uint256",
          "name": "tokenId",
          "type": "uint256"
        }
      ],
      "name": "Approval",
      "type": "event"
    },
    {
      "anonymous": false,
      "inputs": [
        {
          "indexed": true,
          "internalType": "address",
          "name": "owner",
          "type": "address"
        },
        {
          "indexed": true,
          "internalType": "address",
          "name": "operator",
          "type": "address"
        },
        {
          "indexed": false,
          "internalType": "bool",
          "name": "approved",
          "type": "bool"
        }
      ],
      "name": "ApprovalForAll",
      "type": "event"
    },
    {
      "anonymous": false,
      "inputs": [
        {
          "indexed": false,
          "internalType": "uint8",
          "name": "version",
          "type": "uint8"
        }
      ],
      "name": "Initialized",
      "type": "event"
    },
    {
      "anonymous": false,
      "inputs": [
        {
          "indexed": true,
          "internalType": "address",
          "name": "previousOwner",
          "type": "address"
        },
        {
          "indexed": true,
          "internalType": "address",
          "name": "newOwner",
          "type": "address"
        }
      ],
      "name": "OwnershipTransferred",
      "type": "event"
    },
    {
      "anonymous": false,
      "inputs": [
        {
          "indexed": true,
          "internalType": "address",
          "name": "token0",
          "type": "address"
        },
        {
          "indexed": true,
          "internalType": "address",
          "name": "token1",
          "type": "address"
        }
      ],
      "name": "PrivateRelationshipCancel",
      "type": "event"
    },
    {
      "anonymous": false,
      "inputs": [
        {
          "indexed": true,
          "internalType": "address",
          "name": "token0",
          "type": "address"
        },
        {
          "indexed": true,
          "internalType": "address",
          "name": "token1",
          "type": "address"
        },
        {
          "indexed": false,
          "internalType": "uint256",
          "name": "tokenID0",
          "type": "uint256"
        },
        {
          "indexed": false,
          "internalType": "uint256",
          "name": "tokenID1",
          "type": "uint256"
        }
      ],
      "name": "PrivateRelationshipCreated",
      "type": "event"
    },
    {
      "anonymous": false,
      "inputs": [
        {
          "indexed": true,
          "internalType": "address",
          "name": "token0",
          "type": "address"
        },
        {
          "indexed": true,
          "internalType": "address",
          "name": "token1",
          "type": "address"
        }
      ],
      "name": "PublicRelationshipCancel",
      "type": "event"
    },
    {
      "anonymous": false,
      "inputs": [
        {
          "indexed": true,
          "internalType": "address",
          "name": "token0",
          "type": "address"
        },
        {
          "indexed": true,
          "internalType": "address",
          "name": "token1",
          "type": "address"
        },
        {
          "indexed": false,
          "internalType": "uint256",
          "name": "tokenID0",
          "type": "uint256"
        },
        {
          "indexed": false,
          "internalType": "uint256",
          "name": "tokenID1",
          "type": "uint256"
        }
      ],
      "name": "PublicRelationshipCreated",
      "type": "event"
    },
    {
      "anonymous": false,
      "inputs": [
        {
          "indexed": true,
          "internalType": "address",
          "name": "from",
          "type": "address"
        },
        {
          "indexed": true,
          "internalType": "address",
          "name": "to",
          "type": "address"
        },
        {
          "indexed": true,
          "internalType": "uint256",
          "name": "tokenId",
          "type": "uint256"
        }
      ],
      "name": "Transfer",
      "type": "event"
    },
    {
      "inputs": [
        {
          "internalType": "address",
          "name": "to",
          "type": "address"
        },
        {
          "internalType": "uint256",
          "name": "tokenId",
          "type": "uint256"
        }
      ],
      "name": "approve",
      "outputs": [],
      "stateMutability": "nonpayable",
      "type": "function"
    },
    {
      "inputs": [
        {
          "internalType": "address",
          "name": "owner",
          "type": "address"
        }
      ],
      "name": "balanceOf",
      "outputs": [
        {
          "internalType": "uint256",
          "name": "",
          "type": "uint256"
        }
      ],
      "stateMutability": "view",
      "type": "function"
    },
    {
      "inputs": [
        {
          "internalType": "address",
          "name": "_account",
          "type": "address"
        }
      ],
      "name": "cancelPrivateRelationship",
      "outputs": [],
      "stateMutability": "nonpayable",
      "type": "function"
    },
    {
      "inputs": [
        {
          "internalType": "address",
          "name": "_account",
          "type": "address"
        }
      ],
      "name": "cancelPublicRelationship",
      "outputs": [],
      "stateMutability": "nonpayable",
      "type": "function"
    },
    {
      "inputs": [
        {
          "internalType": "address payable",
          "name": "_account",
          "type": "address"
        },
        {
          "internalType": "uint256",
          "name": "_tokenID",
          "type": "uint256"
        },
        {
          "internalType": "uint256",
          "name": "_relationshipType",
          "type": "uint256"
        },
        {
          "internalType": "bytes",
          "name": "_signature",
          "type": "bytes"
        }
      ],
      "name": "createPrivateRelationship",
      "outputs": [],
      "stateMutability": "payable",
      "type": "function"
    },
    {
      "inputs": [
        {
          "internalType": "address payable",
          "name": "_account",
          "type": "address"
        },
        {
          "internalType": "uint256",
          "name": "_relationshipType",
          "type": "uint256"
        },
        {
          "internalType": "bytes",
          "name": "_signature",
          "type": "bytes"
        }
      ],
      "name": "createPublicRelationship",
      "outputs": [],
      "stateMutability": "payable",
      "type": "function"
    },
    {
      "inputs": [],
      "name": "fee",
      "outputs": [
        {
          "internalType": "uint256",
          "name": "",
          "type": "uint256"
        }
      ],
      "stateMutability": "view",
      "type": "function"
    },
    {
      "inputs": [
        {
          "internalType": "uint256",
          "name": "tokenId",
          "type": "uint256"
        }
      ],
      "name": "getApproved",
      "outputs": [
        {
          "internalType": "address",
          "name": "",
          "type": "address"
        }
      ],
      "stateMutability": "view",
      "type": "function"
    },
    {
      "inputs": [
        {
          "internalType": "address",
          "name": "_account",
          "type": "address"
        },
        {
          "internalType": "uint256",
          "name": "_tokenID",
          "type": "uint256"
        },
        {
          "internalType": "uint256",
          "name": "_relationshipType",
          "type": "uint256"
        }
      ],
      "name": "getPrivateHash",
      "outputs": [
        {
          "internalType": "bytes32",
          "name": "",
          "type": "bytes32"
        }
      ],
      "stateMutability": "pure",
      "type": "function"
    },
    {
      "inputs": [
        {
          "internalType": "address",
          "name": "_userA",
          "type": "address"
        },
        {
          "internalType": "address",
          "name": "_userB",
          "type": "address"
        }
      ],
      "name": "getPrivateRelationshipTokenIDs",
      "outputs": [
        {
          "internalType": "uint256[]",
          "name": "",
          "type": "uint256[]"
        }
      ],
      "stateMutability": "view",
      "type": "function"
    },
    {
      "inputs": [
        {
          "internalType": "address",
          "name": "_account",
          "type": "address"
        },
        {
          "internalType": "uint256",
          "name": "_relationshipType",
          "type": "uint256"
        }
      ],
      "name": "getPublicHash",
      "outputs": [
        {
          "internalType": "bytes32",
          "name": "",
          "type": "bytes32"
        }
      ],
      "stateMutability": "pure",
      "type": "function"
    },
    {
      "inputs": [
        {
          "internalType": "address",
          "name": "_userA",
          "type": "address"
        },
        {
          "internalType": "address",
          "name": "_userB",
          "type": "address"
        }
      ],
      "name": "getPublicRelationshipTokenIDs",
      "outputs": [
        {
          "internalType": "uint256[]",
          "name": "",
          "type": "uint256[]"
        }
      ],
      "stateMutability": "view",
      "type": "function"
    },
    {
      "inputs": [
        {
          "internalType": "uint256",
          "name": "_tokenID",
          "type": "uint256"
        }
      ],
      "name": "getRelationshipType",
      "outputs": [
        {
          "internalType": "uint256",
          "name": "",
          "type": "uint256"
        }
      ],
      "stateMutability": "view",
      "type": "function"
    },
    {
      "inputs": [
        {
          "internalType": "string",
          "name": "_name",
          "type": "string"
        },
        {
          "internalType": "string",
          "name": "_symbol",
          "type": "string"
        }
      ],
      "name": "initialize",
      "outputs": [],
      "stateMutability": "nonpayable",
      "type": "function"
    },
    {
      "inputs": [
        {
          "internalType": "address",
          "name": "owner",
          "type": "address"
        },
        {
          "internalType": "address",
          "name": "operator",
          "type": "address"
        }
      ],
      "name": "isApprovedForAll",
      "outputs": [
        {
          "internalType": "bool",
          "name": "",
          "type": "bool"
        }
      ],
      "stateMutability": "view",
      "type": "function"
    },
    {
      "inputs": [],
      "name": "name",
      "outputs": [
        {
          "internalType": "string",
          "name": "",
          "type": "string"
        }
      ],
      "stateMutability": "view",
      "type": "function"
    },
    {
      "inputs": [],
      "name": "owner",
      "outputs": [
        {
          "internalType": "address",
          "name": "",
          "type": "address"
        }
      ],
      "stateMutability": "view",
      "type": "function"
    },
    {
      "inputs": [
        {
          "internalType": "uint256",
          "name": "tokenId",
          "type": "uint256"
        }
      ],
      "name": "ownerOf",
      "outputs": [
        {
          "internalType": "address",
          "name": "",
          "type": "address"
        }
      ],
      "stateMutability": "view",
      "type": "function"
    },
    {
      "inputs": [
        {
          "internalType": "address",
          "name": "",
          "type": "address"
        },
        {
          "internalType": "address",
          "name": "",
          "type": "address"
        },
        {
          "internalType": "uint256",
          "name": "",
          "type": "uint256"
        }
      ],
      "name": "privateRelationships",
      "outputs": [
        {
          "internalType": "uint256",
          "name": "",
          "type": "uint256"
        }
      ],
      "stateMutability": "view",
      "type": "function"
    },
    {
      "inputs": [
        {
          "internalType": "address",
          "name": "",
          "type": "address"
        },
        {
          "internalType": "address",
          "name": "",
          "type": "address"
        },
        {
          "internalType": "uint256",
          "name": "",
          "type": "uint256"
        }
      ],
      "name": "publicRelationships",
      "outputs": [
        {
          "internalType": "uint256",
          "name": "",
          "type": "uint256"
        }
      ],
      "stateMutability": "view",
      "type": "function"
    },
    {
      "inputs": [
        {
          "internalType": "uint256",
          "name": "",
          "type": "uint256"
        }
      ],
      "name": "relationshipTypes",
      "outputs": [
        {
          "internalType": "uint256",
          "name": "",
          "type": "uint256"
        }
      ],
      "stateMutability": "view",
      "type": "function"
    },
    {
      "inputs": [],
      "name": "renounceOwnership",
      "outputs": [],
      "stateMutability": "nonpayable",
      "type": "function"
    },
    {
      "inputs": [
        {
          "internalType": "address",
          "name": "from",
          "type": "address"
        },
        {
          "internalType": "address",
          "name": "to",
          "type": "address"
        },
        {
          "internalType": "uint256",
          "name": "tokenId",
          "type": "uint256"
        }
      ],
      "name": "safeTransferFrom",
      "outputs": [],
      "stateMutability": "nonpayable",
      "type": "function"
    },
    {
      "inputs": [
        {
          "internalType": "address",
          "name": "from",
          "type": "address"
        },
        {
          "internalType": "address",
          "name": "to",
          "type": "address"
        },
        {
          "internalType": "uint256",
          "name": "tokenId",
          "type": "uint256"
        },
        {
          "internalType": "bytes",
          "name": "data",
          "type": "bytes"
        }
      ],
      "name": "safeTransferFrom",
      "outputs": [],
      "stateMutability": "nonpayable",
      "type": "function"
    },
    {
      "inputs": [
        {
          "internalType": "address",
          "name": "operator",
          "type": "address"
        },
        {
          "internalType": "bool",
          "name": "approved",
          "type": "bool"
        }
      ],
      "name": "setApprovalForAll",
      "outputs": [],
      "stateMutability": "nonpayable",
      "type": "function"
    },
    {
      "inputs": [
        {
          "internalType": "uint256",
          "name": "_fee",
          "type": "uint256"
        }
      ],
      "name": "setFee",
      "outputs": [],
      "stateMutability": "nonpayable",
      "type": "function"
    },
    {
      "inputs": [
        {
          "internalType": "bytes4",
          "name": "interfaceId",
          "type": "bytes4"
        }
      ],
      "name": "supportsInterface",
      "outputs": [
        {
          "internalType": "bool",
          "name": "",
          "type": "bool"
        }
      ],
      "stateMutability": "view",
      "type": "function"
    },
    {
      "inputs": [],
      "name": "symbol",
      "outputs": [
        {
          "internalType": "string",
          "name": "",
          "type": "string"
        }
      ],
      "stateMutability": "view",
      "type": "function"
    },
    {
      "inputs": [
        {
          "internalType": "uint256",
          "name": "tokenId",
          "type": "uint256"
        }
      ],
      "name": "tokenURI",
      "outputs": [
        {
          "internalType": "string",
          "name": "",
          "type": "string"
        }
      ],
      "stateMutability": "view",
      "type": "function"
    },
    {
      "inputs": [
        {
          "internalType": "address",
          "name": "from",
          "type": "address"
        },
        {
          "internalType": "address",
          "name": "to",
          "type": "address"
        },
        {
          "internalType": "uint256",
          "name": "tokenId",
          "type": "uint256"
        }
      ],
      "name": "transferFrom",
      "outputs": [],
      "stateMutability": "nonpayable",
      "type": "function"
    },
    {
      "inputs": [
        {
          "internalType": "address",
          "name": "newOwner",
          "type": "address"
        }
      ],
      "name": "transferOwnership",
      "outputs": [],
      "stateMutability": "nonpayable",
      "type": "function"
    },
    {
      "inputs": [
        {
          "internalType": "bytes32",
          "name": "_msgHash",
          "type": "bytes32"
        },
        {
          "internalType": "bytes",
          "name": "_signature",
          "type": "bytes"
        },
        {
          "internalType": "address",
          "name": "_account",
          "type": "address"
        }
      ],
      "name": "verify",
      "outputs": [
        {
          "internalType": "bool",
          "name": "",
          "type": "bool"
        }
      ],
      "stateMutability": "pure",
      "type": "function"
    },
    {
      "inputs": [],
      "name": "withdrawMoney",
      "outputs": [],
      "stateMutability": "nonpayable",
      "type": "function"
    }
  ],
  "bytecode": "0x608060405234801561001057600080fd5b50612e28806100206000396000f3fe6080604052600436106101ee5760003560e01c8063715018a61161010d578063ac446002116100a0578063dcaec2581161006f578063dcaec2581461058f578063ddca3f43146105af578063e985e9c5146105c5578063f2fde38b1461060e578063f71cf5801461062e57600080fd5b8063ac4460021461051a578063b88d4fde1461052f578063baed43d31461054f578063c87b56dd1461056f57600080fd5b80638da5cb5b116100dc5780638da5cb5b146104a757806395d89b41146104c5578063a0b6bfa2146104da578063a22cb465146104fa57600080fd5b8063715018a6146104325780637d0353cf14610447578063823ac37314610467578063878b5f911461048757600080fd5b80633896e089116101855780635f713e98116101545780635f713e98146103b25780636352211e146103d257806369fe0e2d146103f257806370a082311461041257600080fd5b80633896e0891461033257806342842e0e1461035f5780634cd88b761461037f5780635564235c1461039f57600080fd5b8063095ea7b3116101c1578063095ea7b3146102af578063169ffd4d146102d157806323b872dd146102e45780632f0bc8231461030457600080fd5b806301ffc9a7146101f3578063061393a61461022857806306fdde0314610255578063081812fc14610277575b600080fd5b3480156101ff57600080fd5b5061021361020e36600461262f565b61065b565b60405190151581526020015b60405180910390f35b34801561023457600080fd5b50610248610243366004612661565b6106ad565b60405161021f919061269a565b34801561026157600080fd5b5061026a610755565b60405161021f9190612736565b34801561028357600080fd5b50610297610292366004612749565b6107e7565b6040516001600160a01b03909116815260200161021f565b3480156102bb57600080fd5b506102cf6102ca366004612762565b61080e565b005b6102cf6102df366004612831565b610929565b3480156102f057600080fd5b506102cf6102ff366004612894565b610c65565b34801561031057600080fd5b5061032461031f366004612894565b610c96565b60405190815260200161021f565b34801561033e57600080fd5b5061032461034d366004612749565b60cb6020526000908152604090205481565b34801561036b57600080fd5b506102cf61037a366004612894565b610cd4565b34801561038b57600080fd5b506102cf61039a3660046128d5565b610cef565b6102cf6103ad366004612939565b610e0e565b3480156103be57600080fd5b506103246103cd366004612992565b611172565b3480156103de57600080fd5b506102976103ed366004612749565b6111c1565b3480156103fe57600080fd5b506102cf61040d366004612749565b611221565b34801561041e57600080fd5b5061032461042d3660046129c7565b61122e565b34801561043e57600080fd5b506102cf6112b4565b34801561045357600080fd5b50610248610462366004612661565b6112c8565b34801561047357600080fd5b506102136104823660046129e4565b61136e565b34801561049357600080fd5b506102cf6104a23660046129c7565b611396565b3480156104b357600080fd5b506097546001600160a01b0316610297565b3480156104d157600080fd5b5061026a611526565b3480156104e657600080fd5b506103246104f5366004612762565b611535565b34801561050657600080fd5b506102cf610515366004612a3f565b61157c565b34801561052657600080fd5b506102cf61158b565b34801561053b57600080fd5b506102cf61054a366004612a72565b611621565b34801561055b57600080fd5b5061032461056a366004612894565b611659565b34801561057b57600080fd5b5061026a61058a366004612749565b611681565b34801561059b57600080fd5b506102cf6105aa3660046129c7565b6116f5565b3480156105bb57600080fd5b5061032460ca5481565b3480156105d157600080fd5b506102136105e0366004612661565b6001600160a01b039182166000908152606a6020908152604080832093909416825291909152205460ff1690565b34801561061a57600080fd5b506102cf6106293660046129c7565b611875565b34801561063a57600080fd5b50610324610649366004612749565b600090815260cb602052604090205490565b60006001600160e01b031982166380ac58cd60e01b148061068c57506001600160e01b03198216635b5e139f60e01b145b806106a757506301ffc9a760e01b6001600160e01b03198316145b92915050565b6060600080836001600160a01b0316856001600160a01b0316106106d25783856106d5565b84845b6001600160a01b03808216600090815260cc60209081526040808320938616835292815290829020805483518184028101840190945280845294965092945090929083018282801561074657602002820191906000526020600020905b815481526020019060010190808311610732575b50505050509250505092915050565b60606065805461076490612ac6565b80601f016020809104026020016040519081016040528092919081815260200182805461079090612ac6565b80156107dd5780601f106107b2576101008083540402835291602001916107dd565b820191906000526020600020905b8154815290600101906020018083116107c057829003601f168201915b5050505050905090565b60006107f2826118eb565b506000908152606960205260409020546001600160a01b031690565b6000610819826111c1565b9050806001600160a01b0316836001600160a01b0316141561088c5760405162461bcd60e51b815260206004820152602160248201527f4552433732313a20617070726f76616c20746f2063757272656e74206f776e656044820152603960f91b60648201526084015b60405180910390fd5b336001600160a01b03821614806108a857506108a881336105e0565b61091a5760405162461bcd60e51b815260206004820152603d60248201527f4552433732313a20617070726f76652063616c6c6572206973206e6f7420746f60448201527f6b656e206f776e6572206f7220617070726f76656420666f7220616c6c0000006064820152608401610883565b610924838361194a565b505050565b336001600160a01b03851614156109765760405162461bcd60e51b815260206004820152601160248201527012511153951250d05317d050d0d3d55395607a1b6044820152606401610883565b6001600160a01b03841661099c5760405162461bcd60e51b815260040161088390612b01565b6000806001600160a01b03861633106109b65785336109b9565b33865b6001600160a01b03808216600090815260cd6020908152604080832093861683529290522054919350915015610a235760405162461bcd60e51b815260206004820152600f60248201526e52454c4154494f4e5f45584953545360881b6044820152606401610883565b6000610a30878787611172565b7f19457468657265756d205369676e6564204d6573736167653a0a3332000000006000908152601c829052603c9020909150610a6d81868a61136e565b610aad5760405162461bcd60e51b8152602060048201526011602482015270496e76616c6964207369676e617475726560781b6044820152606401610883565b600087815260cb602081815260408084208a90556001600160a01b03808816855260cd83528185209089168552825283208054600181018255908452908320018990558791610afd8a6002612b3d565b815260208082019290925260409081016000908120939093556001600160a01b03808716845260cd835281842090881684529091529020610b3f886002612b3d565b81546001810183556000928352602090922090910155610b5f84886119b8565b610b7383610b6e896002612b3d565b6119b8565b3415610c0a576000886001600160a01b0316610ba66103e8610ba060ca5434611b5190919063ffffffff16565b90611b5d565b604051600081818185875af1925050503d8060008114610be2576040519150601f19603f3d011682016040523d82523d6000602084013e610be7565b606091505b5050905080610c085760405162461bcd60e51b815260040161088390612b55565b505b6001600160a01b038085169084167fa4d06c6dbbd5ff229b882bd289ac63b05be9ea931dfca85ff3eaf7255e403a03610c448a6002612b3d565b60408051918252602082018c90520160405180910390a35050505050505050565b610c6f3382611b69565b610c8b5760405162461bcd60e51b815260040161088390612bb2565b610924838383611bdd565b60cc6020528260005260406000206020528160005260406000208181548110610cbe57600080fd5b9060005260206000200160009250925050505481565b61092483838360405180602001604052806000815250611621565b600054610100900460ff1615808015610d0f5750600054600160ff909116105b80610d295750303b158015610d29575060005460ff166001145b610d8c5760405162461bcd60e51b815260206004820152602e60248201527f496e697469616c697a61626c653a20636f6e747261637420697320616c72656160448201526d191e481a5b9a5d1a585b1a5e995960921b6064820152608401610883565b6000805460ff191660011790558015610daf576000805461ff0019166101001790555b610db98383611d4e565b600060c9556103b660ca558015610924576000805461ff0019169055604051600181527f7f26b83ff96e1f2b6a682f133852f6798a09c465da95921460cefb38474024989060200160405180910390a1505050565b336001600160a01b0384161415610e5b5760405162461bcd60e51b815260206004820152601160248201527012511153951250d05317d050d0d3d55395607a1b6044820152606401610883565b6001600160a01b038316610e815760405162461bcd60e51b815260040161088390612b01565b6000806001600160a01b0385163310610e9b578433610e9e565b33855b6001600160a01b03808216600090815260cc6020908152604080832093861683529290522054919350915015610f085760405162461bcd60e51b815260206004820152600f60248201526e52454c4154494f4e5f45584953545360881b6044820152606401610883565b6000610f148686611535565b7f19457468657265756d205369676e6564204d6573736167653a0a3332000000006000908152601c829052603c9020909150610f5181868961136e565b610f915760405162461bcd60e51b8152602060048201526011602482015270496e76616c6964207369676e617475726560781b6044820152606401610883565b60c98054600090815260cb602081815260408084208b90556001600160a01b03808916855260cc8352818520908a16855282528320845481546001810183559185529184200155915488929190610fe9906002612b3d565b815260208082019290925260409081016000908120939093556001600160a01b03808716845260cc83528184209088168452909152902060c95461102e906002612b3d565b8154600181018355600092835260209092209091015560c9546110529085906119b8565b6110658360c9546002610b6e9190612b3d565b34156110f6576000876001600160a01b03166110926103e8610ba060ca5434611b5190919063ffffffff16565b604051600081818185875af1925050503d80600081146110ce576040519150601f19603f3d011682016040523d82523d6000602084013e6110d3565b606091505b50509050806110f45760405162461bcd60e51b815260040161088390612b55565b505b60c954611104906004612b3d565b60c981905550836001600160a01b0316836001600160a01b03167f8b70c0ec7da4c9daf39bcfc00a43c0c5f1181c94c62aa762c800582dbd30d4f960c954600261114e9190612b3d565b60c9546040805192835260208301919091520160405180910390a350505050505050565b6040516bffffffffffffffffffffffff19606085901b16602082015260348101839052605481018290526000906074016040516020818303038152906040528051906020012090509392505050565b6000818152606760205260408120546001600160a01b0316806106a75760405162461bcd60e51b8152602060048201526018602482015277115490cdcc8c4e881a5b9d985b1a59081d1bdad95b88125160421b6044820152606401610883565b611229611d7f565b60ca55565b60006001600160a01b0382166112985760405162461bcd60e51b815260206004820152602960248201527f4552433732313a2061646472657373207a65726f206973206e6f7420612076616044820152683634b21037bbb732b960b91b6064820152608401610883565b506001600160a01b031660009081526068602052604090205490565b6112bc611d7f565b6112c66000611dd9565b565b6060600080836001600160a01b0316856001600160a01b0316106112ed5783856112f0565b84845b6001600160a01b03808216600090815260cd60209081526040808320938616835292815290829020805483518184028101840190945280845294965092945090929083018282801561074657602002820191906000526020600020908154815260200190600101908083116107325750505050509250505092915050565b6000816001600160a01b03166113848585611e2b565b6001600160a01b031614949350505050565b6001600160a01b0381166113bc5760405162461bcd60e51b815260040161088390612b01565b6000806001600160a01b03831633106113d65782336113d9565b33835b6001600160a01b03808216600090815260cc602090815260408083209386168352929052205491935091506114465760405162461bcd60e51b815260206004820152601360248201527252454c4154494f4e5f4e4f545f45584953545360681b6044820152606401610883565b60005b60028110156114b0576001600160a01b03808316600090815260cc60209081526040808320938716835292905220805461149e91908390811061148e5761148e612bff565b9060005260206000200154611e4f565b806114a881612c15565b915050611449565b506001600160a01b03808216600090815260cc6020908152604080832093861683529290529081206114e191612562565b816001600160a01b0316816001600160a01b03167ffc31f5413d866683b18f7bb3576af2ad3a32102b6340352a91e907092e18eb6d60405160405180910390a3505050565b60606066805461076490612ac6565b6040516bffffffffffffffffffffffff19606084901b1660208201526034810182905260009060540160405160208183030381529060405280519060200120905092915050565b611587338383611ef2565b5050565b611593611d7f565b604051600090339047908381818185875af1925050503d80600081146115d5576040519150601f19603f3d011682016040523d82523d6000602084013e6115da565b606091505b505090508061161e5760405162461bcd60e51b815260206004820152601060248201526f2a3930b739b332b9103330b4b632b21760811b6044820152606401610883565b50565b61162b3383611b69565b6116475760405162461bcd60e51b815260040161088390612bb2565b61165384848484611fc1565b50505050565b60cd6020528260005260406000206020528160005260406000208181548110610cbe57600080fd5b606061168c826118eb565b60006116a360408051602081019091526000815290565b905060008151116116c357604051806020016040528060008152506116ee565b806116cd84611ff4565b6040516020016116de929190612c30565b6040516020818303038152906040525b9392505050565b6001600160a01b03811661171b5760405162461bcd60e51b815260040161088390612b01565b6000806001600160a01b0383163310611735578233611738565b33835b6001600160a01b03808216600090815260cd602090815260408083209386168352929052205491935091506117a55760405162461bcd60e51b815260206004820152601360248201527252454c4154494f4e5f4e4f545f45584953545360681b6044820152606401610883565b60005b60028110156117ff576001600160a01b03808316600090815260cd6020908152604080832093871683529290522080546117ed91908390811061148e5761148e612bff565b806117f781612c15565b9150506117a8565b506001600160a01b03808216600090815260cd60209081526040808320938616835292905290812061183091612562565b816001600160a01b0316816001600160a01b03167f43a931ab3d45f3c196645b40aa4a609fbe2a8e1e83789689e686bdfbe78a7db460405160405180910390a3505050565b61187d611d7f565b6001600160a01b0381166118e25760405162461bcd60e51b815260206004820152602660248201527f4f776e61626c653a206e6577206f776e657220697320746865207a65726f206160448201526564647265737360d01b6064820152608401610883565b61161e81611dd9565b6000818152606760205260409020546001600160a01b031661161e5760405162461bcd60e51b8152602060048201526018602482015277115490cdcc8c4e881a5b9d985b1a59081d1bdad95b88125160421b6044820152606401610883565b600081815260696020526040902080546001600160a01b0319166001600160a01b038416908117909155819061197f826111c1565b6001600160a01b03167f8c5be1e5ebec7d5bd14f71427d1e84f3dd0314c0f7b2291e5b200ac8c7c3b92560405160405180910390a45050565b6001600160a01b038216611a0e5760405162461bcd60e51b815260206004820181905260248201527f4552433732313a206d696e7420746f20746865207a65726f20616464726573736044820152606401610883565b6000818152606760205260409020546001600160a01b031615611a735760405162461bcd60e51b815260206004820152601c60248201527f4552433732313a20746f6b656e20616c7265616479206d696e746564000000006044820152606401610883565b611a81600083836001612089565b6000818152606760205260409020546001600160a01b031615611ae65760405162461bcd60e51b815260206004820152601c60248201527f4552433732313a20746f6b656e20616c7265616479206d696e746564000000006044820152606401610883565b6001600160a01b038216600081815260686020908152604080832080546001019055848352606790915280822080546001600160a01b0319168417905551839291907fddf252ad1be2c89b69c2b068fc378daa952ba7f163c4a11628f55a4df523b3ef908290a45050565b60006116ee8284612c5f565b60006116ee8284612c7e565b600080611b75836111c1565b9050806001600160a01b0316846001600160a01b03161480611bbc57506001600160a01b038082166000908152606a602090815260408083209388168352929052205460ff165b80611bd55750836001600160a01b0316611384846107e7565b949350505050565b826001600160a01b0316611bf0826111c1565b6001600160a01b031614611c165760405162461bcd60e51b815260040161088390612ca0565b6001600160a01b038216611c785760405162461bcd60e51b8152602060048201526024808201527f4552433732313a207472616e7366657220746f20746865207a65726f206164646044820152637265737360e01b6064820152608401610883565b611c858383836001612089565b826001600160a01b0316611c98826111c1565b6001600160a01b031614611cbe5760405162461bcd60e51b815260040161088390612ca0565b600081815260696020908152604080832080546001600160a01b03199081169091556001600160a01b0387811680865260688552838620805460001901905590871680865283862080546001019055868652606790945282852080549092168417909155905184937fddf252ad1be2c89b69c2b068fc378daa952ba7f163c4a11628f55a4df523b3ef91a4505050565b600054610100900460ff16611d755760405162461bcd60e51b815260040161088390612ce5565b61158782826120e6565b6097546001600160a01b031633146112c65760405162461bcd60e51b815260206004820181905260248201527f4f776e61626c653a2063616c6c6572206973206e6f7420746865206f776e65726044820152606401610883565b609780546001600160a01b038381166001600160a01b0319831681179093556040519116919082907f8be0079c531659141344cd1fd0a4f28419497f9722a3daafe3b4186f6b6457e090600090a35050565b6000806000611e3a8585612134565b91509150611e478161217a565b509392505050565b6000611e5a826111c1565b9050611e6a816000846001612089565b611e73826111c1565b600083815260696020908152604080832080546001600160a01b03199081169091556001600160a01b0385168085526068845282852080546000190190558785526067909352818420805490911690555192935084927fddf252ad1be2c89b69c2b068fc378daa952ba7f163c4a11628f55a4df523b3ef908390a45050565b816001600160a01b0316836001600160a01b03161415611f545760405162461bcd60e51b815260206004820152601960248201527f4552433732313a20617070726f766520746f2063616c6c6572000000000000006044820152606401610883565b6001600160a01b038381166000818152606a6020908152604080832094871680845294825291829020805460ff191686151590811790915591519182527f17307eab39ab6107e8899845ad3d59bd9653f200f220920489ca2b5937696c31910160405180910390a3505050565b611fcc848484611bdd565b611fd8848484846122c8565b6116535760405162461bcd60e51b815260040161088390612d30565b60606000612001836123c6565b600101905060008167ffffffffffffffff8111156120215761202161278e565b6040519080825280601f01601f19166020018201604052801561204b576020820181803683370190505b5090508181016020015b600019016f181899199a1a9b1b9c1cb0b131b232b360811b600a86061a8153600a850494508461208457611e47565b612055565b6001600160a01b03831615806120a657506001600160a01b038416155b6120e15760405162461bcd60e51b815260206004820152600c60248201526b2727aa2faa2920a729a322a960a11b6044820152606401610883565b611653565b600054610100900460ff1661210d5760405162461bcd60e51b815260040161088390612ce5565b8151612120906065906020850190612580565b508051610924906066906020840190612580565b60008082516041141561216b5760208301516040840151606085015160001a61215f8782858561249e565b94509450505050612173565b506000905060025b9250929050565b600081600481111561218e5761218e612d82565b14156121975750565b60018160048111156121ab576121ab612d82565b14156121f95760405162461bcd60e51b815260206004820152601860248201527f45434453413a20696e76616c6964207369676e617475726500000000000000006044820152606401610883565b600281600481111561220d5761220d612d82565b141561225b5760405162461bcd60e51b815260206004820152601f60248201527f45434453413a20696e76616c6964207369676e6174757265206c656e677468006044820152606401610883565b600381600481111561226f5761226f612d82565b141561161e5760405162461bcd60e51b815260206004820152602260248201527f45434453413a20696e76616c6964207369676e6174757265202773272076616c604482015261756560f01b6064820152608401610883565b60006001600160a01b0384163b156123bb57604051630a85bd0160e11b81526001600160a01b0385169063150b7a029061230c903390899088908890600401612d98565b6020604051808303816000875af1925050508015612347575060408051601f3d908101601f1916820190925261234491810190612dd5565b60015b6123a1573d808015612375576040519150601f19603f3d011682016040523d82523d6000602084013e61237a565b606091505b5080516123995760405162461bcd60e51b815260040161088390612d30565b805181602001fd5b6001600160e01b031916630a85bd0160e11b149050611bd5565b506001949350505050565b60008072184f03e93ff9f4daa797ed6e38ed64bf6a1f0160401b83106124055772184f03e93ff9f4daa797ed6e38ed64bf6a1f0160401b830492506040015b6d04ee2d6d415b85acef81000000008310612431576d04ee2d6d415b85acef8100000000830492506020015b662386f26fc10000831061244f57662386f26fc10000830492506010015b6305f5e1008310612467576305f5e100830492506008015b612710831061247b57612710830492506004015b6064831061248d576064830492506002015b600a83106106a75760010192915050565b6000807f7fffffffffffffffffffffffffffffff5d576e7357a4501ddfe92f46681b20a08311156124d55750600090506003612559565b6040805160008082526020820180845289905260ff881692820192909252606081018690526080810185905260019060a0016020604051602081039080840390855afa158015612529573d6000803e3d6000fd5b5050604051601f1901519150506001600160a01b03811661255257600060019250925050612559565b9150600090505b94509492505050565b508054600082559060005260206000209081019061161e9190612604565b82805461258c90612ac6565b90600052602060002090601f0160209004810192826125ae57600085556125f4565b82601f106125c757805160ff19168380011785556125f4565b828001600101855582156125f4579182015b828111156125f45782518255916020019190600101906125d9565b50612600929150612604565b5090565b5b808211156126005760008155600101612605565b6001600160e01b03198116811461161e57600080fd5b60006020828403121561264157600080fd5b81356116ee81612619565b6001600160a01b038116811461161e57600080fd5b6000806040838503121561267457600080fd5b823561267f8161264c565b9150602083013561268f8161264c565b809150509250929050565b6020808252825182820181905260009190848201906040850190845b818110156126d2578351835292840192918401916001016126b6565b50909695505050505050565b60005b838110156126f95781810151838201526020016126e1565b838111156116535750506000910152565b600081518084526127228160208601602086016126de565b601f01601f19169290920160200192915050565b6020815260006116ee602083018461270a565b60006020828403121561275b57600080fd5b5035919050565b6000806040838503121561277557600080fd5b82356127808161264c565b946020939093013593505050565b634e487b7160e01b600052604160045260246000fd5b600082601f8301126127b557600080fd5b813567ffffffffffffffff808211156127d0576127d061278e565b604051601f8301601f19908116603f011681019082821181831017156127f8576127f861278e565b8160405283815286602085880101111561281157600080fd5b836020870160208301376000602085830101528094505050505092915050565b6000806000806080858703121561284757600080fd5b84356128528161264c565b93506020850135925060408501359150606085013567ffffffffffffffff81111561287c57600080fd5b612888878288016127a4565b91505092959194509250565b6000806000606084860312156128a957600080fd5b83356128b48161264c565b925060208401356128c48161264c565b929592945050506040919091013590565b600080604083850312156128e857600080fd5b823567ffffffffffffffff8082111561290057600080fd5b61290c868387016127a4565b9350602085013591508082111561292257600080fd5b5061292f858286016127a4565b9150509250929050565b60008060006060848603121561294e57600080fd5b83356129598161264c565b925060208401359150604084013567ffffffffffffffff81111561297c57600080fd5b612988868287016127a4565b9150509250925092565b6000806000606084860312156129a757600080fd5b83356129b28161264c565b95602085013595506040909401359392505050565b6000602082840312156129d957600080fd5b81356116ee8161264c565b6000806000606084860312156129f957600080fd5b83359250602084013567ffffffffffffffff811115612a1757600080fd5b612a23868287016127a4565b9250506040840135612a348161264c565b809150509250925092565b60008060408385031215612a5257600080fd5b8235612a5d8161264c565b91506020830135801515811461268f57600080fd5b60008060008060808587031215612a8857600080fd5b8435612a938161264c565b93506020850135612aa38161264c565b925060408501359150606085013567ffffffffffffffff81111561287c57600080fd5b600181811c90821680612ada57607f821691505b60208210811415612afb57634e487b7160e01b600052602260045260246000fd5b50919050565b6020808252600c908201526b5a45524f5f4144445245535360a01b604082015260600190565b634e487b7160e01b600052601160045260246000fd5b60008219821115612b5057612b50612b27565b500190565b6020808252603a908201527f416464726573733a20756e61626c6520746f2073656e642076616c75652c207260408201527f6563697069656e74206d61792068617665207265766572746564000000000000606082015260800190565b6020808252602d908201527f4552433732313a2063616c6c6572206973206e6f7420746f6b656e206f776e6560408201526c1c881bdc88185c1c1c9bdd9959609a1b606082015260800190565b634e487b7160e01b600052603260045260246000fd5b6000600019821415612c2957612c29612b27565b5060010190565b60008351612c428184602088016126de565b835190830190612c568183602088016126de565b01949350505050565b6000816000190483118215151615612c7957612c79612b27565b500290565b600082612c9b57634e487b7160e01b600052601260045260246000fd5b500490565b60208082526025908201527f4552433732313a207472616e736665722066726f6d20696e636f72726563742060408201526437bbb732b960d91b606082015260800190565b6020808252602b908201527f496e697469616c697a61626c653a20636f6e7472616374206973206e6f74206960408201526a6e697469616c697a696e6760a81b606082015260800190565b60208082526032908201527f4552433732313a207472616e7366657220746f206e6f6e20455243373231526560408201527131b2b4bb32b91034b6b83632b6b2b73a32b960711b606082015260800190565b634e487b7160e01b600052602160045260246000fd5b6001600160a01b0385811682528416602082015260408101839052608060608201819052600090612dcb9083018461270a565b9695505050505050565b600060208284031215612de757600080fd5b81516116ee8161261956fea2646970667358221220f6fc4a8c344ed31de1c380d89c9a49fc157eea2be0d126ca7199210d405ab73f64736f6c634300080b0033",
  "linkReferences": {},
  "deployedLinkReferences": {}
}